{
  "_format": "hh-sol-artifact-1",
  "contractName": "NTFFoot",
  "sourceName": "contracts/NTFFoot.sol",
  "abi": [
    {
      "stateMutability": "payable",
      "type": "fallback"
    },
    {
      "inputs": [
        {
          "internalType": "string",
          "name": "_name",
          "type": "string"
        },
        {
          "internalType": "uint16",
          "name": "_idCheveux",
          "type": "uint16"
        },
        {
          "internalType": "uint16",
          "name": "_idYeux",
          "type": "uint16"
        },
        {
          "internalType": "uint16",
          "name": "_idNez",
          "type": "uint16"
        },
        {
          "internalType": "uint16",
          "name": "_idBouche",
          "type": "uint16"
        },
        {
          "internalType": "uint16",
          "name": "_idCouleur",
          "type": "uint16"
        },
        {
          "internalType": "uint16",
          "name": "_ifCher",
          "type": "uint16"
        }
      ],
      "name": "createPerso",
      "outputs": [
        {
          "internalType": "string",
          "name": "",
          "type": "string"
        }
      ],
      "stateMutability": "nonpayable",
      "type": "function"
    },
    {
      "inputs": [],
      "name": "createStats",
      "outputs": [
        {
          "internalType": "uint16",
          "name": "_ramdomForce",
          "type": "uint16"
        },
        {
          "internalType": "uint16",
          "name": "_ramdomVitesse",
          "type": "uint16"
        },
        {
          "internalType": "uint16",
          "name": "_ramdomTechnique",
          "type": "uint16"
        }
      ],
      "stateMutability": "view",
      "type": "function"
    },
    {
      "inputs": [],
      "name": "getPersoActive",
      "outputs": [
        {
          "components": [
            {
              "internalType": "uint16",
              "name": "rang",
              "type": "uint16"
            },
            {
              "internalType": "string",
              "name": "name",
              "type": "string"
            },
            {
              "internalType": "uint16",
              "name": "idCheveux",
              "type": "uint16"
            },
            {
              "internalType": "uint16",
              "name": "idYeux",
              "type": "uint16"
            },
            {
              "internalType": "uint16",
              "name": "idNez",
              "type": "uint16"
            },
            {
              "internalType": "uint16",
              "name": "idBouche",
              "type": "uint16"
            },
            {
              "internalType": "uint16",
              "name": "idCouleur",
              "type": "uint16"
            },
            {
              "internalType": "uint16",
              "name": "force",
              "type": "uint16"
            },
            {
              "internalType": "uint16",
              "name": "vitesse",
              "type": "uint16"
            },
            {
              "internalType": "uint16",
              "name": "technique",
              "type": "uint16"
            }
          ],
          "internalType": "struct NTFFoot.Perso",
          "name": "_actif",
          "type": "tuple"
        }
      ],
      "stateMutability": "view",
      "type": "function"
    },
    {
      "inputs": [],
      "name": "getPersoList",
      "outputs": [
        {
          "components": [
            {
              "internalType": "uint16",
              "name": "rang",
              "type": "uint16"
            },
            {
              "internalType": "string",
              "name": "name",
              "type": "string"
            },
            {
              "internalType": "uint16",
              "name": "idCheveux",
              "type": "uint16"
            },
            {
              "internalType": "uint16",
              "name": "idYeux",
              "type": "uint16"
            },
            {
              "internalType": "uint16",
              "name": "idNez",
              "type": "uint16"
            },
            {
              "internalType": "uint16",
              "name": "idBouche",
              "type": "uint16"
            },
            {
              "internalType": "uint16",
              "name": "idCouleur",
              "type": "uint16"
            },
            {
              "internalType": "uint16",
              "name": "force",
              "type": "uint16"
            },
            {
              "internalType": "uint16",
              "name": "vitesse",
              "type": "uint16"
            },
            {
              "internalType": "uint16",
              "name": "technique",
              "type": "uint16"
            }
          ],
          "internalType": "struct NTFFoot.Perso[]",
          "name": "",
          "type": "tuple[]"
        }
      ],
      "stateMutability": "view",
      "type": "function"
    },
    {
      "inputs": [
        {
          "internalType": "address",
          "name": "",
          "type": "address"
        }
      ],
      "name": "ownerPersoCount",
      "outputs": [
        {
          "internalType": "uint256",
          "name": "",
          "type": "uint256"
        }
      ],
      "stateMutability": "view",
      "type": "function"
    },
    {
      "inputs": [
        {
          "internalType": "address",
          "name": "",
          "type": "address"
        }
      ],
      "name": "ownerToActive",
      "outputs": [
        {
          "internalType": "uint256",
          "name": "",
          "type": "uint256"
        }
      ],
      "stateMutability": "view",
      "type": "function"
    },
    {
      "inputs": [
        {
          "internalType": "address",
          "name": "",
          "type": "address"
        }
      ],
      "name": "ownerToOpponent",
      "outputs": [
        {
          "internalType": "uint256",
          "name": "",
          "type": "uint256"
        }
      ],
      "stateMutability": "view",
      "type": "function"
    },
    {
      "inputs": [],
      "name": "payementMaxi",
      "outputs": [],
      "stateMutability": "payable",
      "type": "function"
    },
    {
      "inputs": [],
      "name": "payementMini",
      "outputs": [],
      "stateMutability": "payable",
      "type": "function"
    },
    {
      "inputs": [
        {
          "internalType": "uint256",
          "name": "",
          "type": "uint256"
        }
      ],
      "name": "persoToOwner",
      "outputs": [
        {
          "internalType": "address",
          "name": "",
          "type": "address"
        }
      ],
      "stateMutability": "view",
      "type": "function"
    },
    {
      "inputs": [
        {
          "internalType": "uint256",
          "name": "",
          "type": "uint256"
        }
      ],
      "name": "persos",
      "outputs": [
        {
          "internalType": "uint16",
          "name": "rang",
          "type": "uint16"
        },
        {
          "internalType": "string",
          "name": "name",
          "type": "string"
        },
        {
          "internalType": "uint16",
          "name": "idCheveux",
          "type": "uint16"
        },
        {
          "internalType": "uint16",
          "name": "idYeux",
          "type": "uint16"
        },
        {
          "internalType": "uint16",
          "name": "idNez",
          "type": "uint16"
        },
        {
          "internalType": "uint16",
          "name": "idBouche",
          "type": "uint16"
        },
        {
          "internalType": "uint16",
          "name": "idCouleur",
          "type": "uint16"
        },
        {
          "internalType": "uint16",
          "name": "force",
          "type": "uint16"
        },
        {
          "internalType": "uint16",
          "name": "vitesse",
          "type": "uint16"
        },
        {
          "internalType": "uint16",
          "name": "technique",
          "type": "uint16"
        }
      ],
      "stateMutability": "view",
      "type": "function"
    },
    {
      "inputs": [
        {
          "internalType": "address payable",
          "name": "_to",
          "type": "address"
        }
      ],
      "name": "sendViaCall",
      "outputs": [],
      "stateMutability": "payable",
      "type": "function"
    },
    {
      "inputs": [
        {
          "internalType": "uint256",
          "name": "_idPerso",
          "type": "uint256"
        }
      ],
      "name": "setPersoActive",
      "outputs": [],
      "stateMutability": "nonpayable",
      "type": "function"
    },
    {
      "inputs": [
        {
          "internalType": "uint256",
          "name": "v",
          "type": "uint256"
        }
      ],
      "name": "uintToString",
      "outputs": [
        {
          "internalType": "string",
          "name": "str",
          "type": "string"
        }
      ],
      "stateMutability": "pure",
      "type": "function"
    },
    {
      "stateMutability": "payable",
      "type": "receive"
    }
  ],
  "bytecode": "0x608060405234801561001057600080fd5b50611fdb806100206000396000f3fe6080604052600436106100e15760003560e01c80637237a2da1161007f578063b986c0f011610059578063b986c0f0146102c2578063c91c546e146102ed578063d42b545f146102f7578063e93956791461033d576100e8565b80637237a2da1461025057806374d69ae61461027d578063830c29ae146102a6576100e8565b806329cdb1fa116100bb57806329cdb1fa146101a15780633353f2c1146101cc5780633d8c80e3146101d657806357ba787614610213576100e8565b8063172c8459146100ea578063218ee55f1461012757806322173fbb14610164576100e8565b366100e857005b005b3480156100f657600080fd5b50610111600480360381019061010c91906114f3565b61037a565b60405161011e9190611b2d565b60405180910390f35b34801561013357600080fd5b5061014e600480360381019061014991906115fb565b610392565b60405161015b91906119b2565b60405180910390f35b34801561017057600080fd5b5061018b600480360381019061018691906114f3565b6103c5565b6040516101989190611b2d565b60405180910390f35b3480156101ad57600080fd5b506101b66103dd565b6040516101c39190611a31565b60405180910390f35b6101d4610635565b005b3480156101e257600080fd5b506101fd60048036038101906101f891906114f3565b61064a565b60405161020a9190611b2d565b60405180910390f35b34801561021f57600080fd5b5061023a60048036038101906102359190611545565b610662565b60405161024791906119ef565b60405180910390f35b34801561025c57600080fd5b506102656109c0565b60405161027493929190611af6565b60405180910390f35b34801561028957600080fd5b506102a4600480360381019061029f91906115fb565b610a60565b005b6102c060048036038101906102bb919061151c565b610aa7565b005b3480156102ce57600080fd5b506102d7610b5a565b6040516102e491906119cd565b60405180910390f35b6102f5610f06565b005b34801561030357600080fd5b5061031e600480360381019061031991906115fb565b610f1b565b6040516103349a99989796959493929190611a53565b60405180910390f35b34801561034957600080fd5b50610364600480360381019061035f91906115fb565b611085565b60405161037191906119ef565b60405180910390f35b60026020528060005260406000206000915090505481565b60016020528060005260406000206000915054906101000a900473ffffffffffffffffffffffffffffffffffffffff1681565b60036020528060005260406000206000915090505481565b6103e561131d565b6000600360003373ffffffffffffffffffffffffffffffffffffffff1673ffffffffffffffffffffffffffffffffffffffff16815260200190815260200160002054905060008181548110610463577f4e487b7100000000000000000000000000000000000000000000000000000000600052603260045260246000fd5b9060005260206000209060030201604051806101400160405290816000820160009054906101000a900461ffff1661ffff1661ffff1681526020016001820180546104ad90611d73565b80601f01602080910402602001604051908101604052809291908181526020018280546104d990611d73565b80156105265780601f106104fb57610100808354040283529160200191610526565b820191906000526020600020905b81548152906001019060200180831161050957829003601f168201915b505050505081526020016002820160009054906101000a900461ffff1661ffff1661ffff1681526020016002820160029054906101000a900461ffff1661ffff1661ffff1681526020016002820160049054906101000a900461ffff1661ffff1661ffff1681526020016002820160069054906101000a900461ffff1661ffff1661ffff1681526020016002820160089054906101000a900461ffff1661ffff1661ffff16815260200160028201600a9054906101000a900461ffff1661ffff1661ffff16815260200160028201600c9054906101000a900461ffff1661ffff1661ffff16815260200160028201600e9054906101000a900461ffff1661ffff1661ffff168152505091505090565b66038d7ea4c68000341461064857600080fd5b565b60046020528060005260406000206000915090505481565b606060008060006106716109c0565b80935081945082955050505060008080549050905060006040518061014001604052808361ffff1681526020018e81526020018d61ffff1681526020018c61ffff1681526020018b61ffff1681526020018a61ffff1681526020018961ffff1681526020018661ffff1681526020018561ffff1681526020018461ffff16815250908060018154018082558091505060019003906000526020600020906003020160009091909190915060008201518160000160006101000a81548161ffff021916908361ffff160217905550602082015181600101908051906020019061075a929190611394565b5060408201518160020160006101000a81548161ffff021916908361ffff16021790555060608201518160020160026101000a81548161ffff021916908361ffff16021790555060808201518160020160046101000a81548161ffff021916908361ffff16021790555060a08201518160020160066101000a81548161ffff021916908361ffff16021790555060c08201518160020160086101000a81548161ffff021916908361ffff16021790555060e082015181600201600a6101000a81548161ffff021916908361ffff16021790555061010082015181600201600c6101000a81548161ffff021916908361ffff16021790555061012082015181600201600e6101000a81548161ffff021916908361ffff16021790555050506000600160008054905061088b9190611ca1565b9050336001600083815260200190815260200160002060006101000a81548173ffffffffffffffffffffffffffffffffffffffff021916908373ffffffffffffffffffffffffffffffffffffffff160217905550600260003373ffffffffffffffffffffffffffffffffffffffff1673ffffffffffffffffffffffffffffffffffffffff168152602001908152602001600020600081548092919061092f90611dd6565b919050555080600360003373ffffffffffffffffffffffffffffffffffffffff1673ffffffffffffffffffffffffffffffffffffffff168152602001908152602001600020819055506040518060400160405280600381526020017f313030000000000000000000000000000000000000000000000000000000000081525095505050505050979650505050505050565b6000806000806109cf42611085565b90506000816040516020016109e49190611986565b6040516020818303038152906040528051906020012060001c9050606461271082610a0f9190611e1f565b610a199190611c70565b9450612710620f424082610a2d9190611e1f565b610a379190611c70565b9350620f42406305f5e10082610a4d9190611e1f565b610a579190611c70565b92505050909192565b80600360003373ffffffffffffffffffffffffffffffffffffffff1673ffffffffffffffffffffffffffffffffffffffff1681526020019081526020016000208190555050565b6000808273ffffffffffffffffffffffffffffffffffffffff1634604051610ace9061199d565b60006040518083038185875af1925050503d8060008114610b0b576040519150601f19603f3d011682016040523d82523d6000602084013e610b10565b606091505b509150915081610b55576040517f08c379a0000000000000000000000000000000000000000000000000000000008152600401610b4c90611a11565b60405180910390fd5b505050565b60606000600260003373ffffffffffffffffffffffffffffffffffffffff1673ffffffffffffffffffffffffffffffffffffffff1681526020019081526020016000205467ffffffffffffffff811115610bdd577f4e487b7100000000000000000000000000000000000000000000000000000000600052604160045260246000fd5b604051908082528060200260200182016040528015610c1657816020015b610c0361131d565b815260200190600190039081610bfb5790505b5090506000805b600080549050811015610efd573373ffffffffffffffffffffffffffffffffffffffff166001600083815260200190815260200160002060009054906101000a900473ffffffffffffffffffffffffffffffffffffffff1673ffffffffffffffffffffffffffffffffffffffff161415610eea5760008181548110610ccb577f4e487b7100000000000000000000000000000000000000000000000000000000600052603260045260246000fd5b9060005260206000209060030201604051806101400160405290816000820160009054906101000a900461ffff1661ffff1661ffff168152602001600182018054610d1590611d73565b80601f0160208091040260200160405190810160405280929190818152602001828054610d4190611d73565b8015610d8e5780601f10610d6357610100808354040283529160200191610d8e565b820191906000526020600020905b815481529060010190602001808311610d7157829003601f168201915b505050505081526020016002820160009054906101000a900461ffff1661ffff1661ffff1681526020016002820160029054906101000a900461ffff1661ffff1661ffff1681526020016002820160049054906101000a900461ffff1661ffff1661ffff1681526020016002820160069054906101000a900461ffff1661ffff1661ffff1681526020016002820160089054906101000a900461ffff1661ffff1661ffff16815260200160028201600a9054906101000a900461ffff1661ffff1661ffff16815260200160028201600c9054906101000a900461ffff1661ffff1661ffff16815260200160028201600e9054906101000a900461ffff1661ffff1661ffff1681525050838381518110610ed0577f4e487b7100000000000000000000000000000000000000000000000000000000600052603260045260246000fd5b60200260200101819052508180610ee690611dd6565b9250505b8080610ef590611dd6565b915050610c1d565b50819250505090565b662386f26fc100003414610f1957600080fd5b565b60008181548110610f2b57600080fd5b90600052602060002090600302016000915090508060000160009054906101000a900461ffff1690806001018054610f6290611d73565b80601f0160208091040260200160405190810160405280929190818152602001828054610f8e90611d73565b8015610fdb5780601f10610fb057610100808354040283529160200191610fdb565b820191906000526020600020905b815481529060010190602001808311610fbe57829003601f168201915b5050505050908060020160009054906101000a900461ffff16908060020160029054906101000a900461ffff16908060020160049054906101000a900461ffff16908060020160069054906101000a900461ffff16908060020160089054906101000a900461ffff169080600201600a9054906101000a900461ffff169080600201600c9054906101000a900461ffff169080600201600e9054906101000a900461ffff1690508a565b606060006064905060008167ffffffffffffffff8111156110cf577f4e487b7100000000000000000000000000000000000000000000000000000000600052604160045260246000fd5b6040519080825280601f01601f1916602001820160405280156111015781602001600182028036833780820191505090505b50905060005b600085146111b9576000600a8661111e9190611e1f565b9050600a8661112d9190611c70565b955080603061113c9190611c1a565b60f81b83838061114b90611dd6565b945081518110611184577f4e487b7100000000000000000000000000000000000000000000000000000000600052603260045260246000fd5b60200101907effffffffffffffffffffffffffffffffffffffffffffffffffffffffffffff1916908160001a90535050611107565b60006001826111c89190611c1a565b67ffffffffffffffff811115611207577f4e487b7100000000000000000000000000000000000000000000000000000000600052604160045260246000fd5b6040519080825280601f01601f1916602001820160405280156112395781602001600182028036833780820191505090505b50905060005b828111611310578381846112539190611ca1565b8151811061128a577f4e487b7100000000000000000000000000000000000000000000000000000000600052603260045260246000fd5b602001015160f81c60f81b8282815181106112ce577f4e487b7100000000000000000000000000000000000000000000000000000000600052603260045260246000fd5b60200101907effffffffffffffffffffffffffffffffffffffffffffffffffffffffffffff1916908160001a905350808061130890611dd6565b91505061123f565b5080945050505050919050565b604051806101400160405280600061ffff16815260200160608152602001600061ffff168152602001600061ffff168152602001600061ffff168152602001600061ffff168152602001600061ffff168152602001600061ffff168152602001600061ffff168152602001600061ffff1681525090565b8280546113a090611d73565b90600052602060002090601f0160209004810192826113c25760008555611409565b82601f106113db57805160ff1916838001178555611409565b82800160010185558215611409579182015b828111156114085782518255916020019190600101906113ed565b5b509050611416919061141a565b5090565b5b8082111561143357600081600090555060010161141b565b5090565b600061144a61144584611b6d565b611b48565b90508281526020810184848401111561146257600080fd5b61146d848285611d31565b509392505050565b60008135905061148481611f49565b92915050565b60008135905061149981611f60565b92915050565b600082601f8301126114b057600080fd5b81356114c0848260208601611437565b91505092915050565b6000813590506114d881611f77565b92915050565b6000813590506114ed81611f8e565b92915050565b60006020828403121561150557600080fd5b600061151384828501611475565b91505092915050565b60006020828403121561152e57600080fd5b600061153c8482850161148a565b91505092915050565b600080600080600080600060e0888a03121561156057600080fd5b600088013567ffffffffffffffff81111561157a57600080fd5b6115868a828b0161149f565b97505060206115978a828b016114c9565b96505060406115a88a828b016114c9565b95505060606115b98a828b016114c9565b94505060806115ca8a828b016114c9565b93505060a06115db8a828b016114c9565b92505060c06115ec8a828b016114c9565b91505092959891949750929550565b60006020828403121561160d57600080fd5b600061161b848285016114de565b91505092915050565b600061163083836117a5565b905092915050565b61164181611cd5565b82525050565b600061165282611bae565b61165c8185611bd1565b93508360208202850161166e85611b9e565b8060005b858110156116aa578484038952815161168b8582611624565b945061169683611bc4565b925060208a01995050600181019050611672565b50829750879550505050505092915050565b60006116c782611bb9565b6116d18185611bed565b93506116e1818560208601611d40565b6116ea81611f0c565b840191505092915050565b600061170082611bb9565b61170a8185611bfe565b935061171a818560208601611d40565b61172381611f0c565b840191505092915050565b600061173982611bb9565b6117438185611c0f565b9350611753818560208601611d40565b80840191505092915050565b600061176c601483611bfe565b915061177782611f1d565b602082019050919050565b600061178f600083611be2565b915061179a82611f46565b600082019050919050565b6000610140830160008301516117be6000860182611959565b50602083015184820360208601526117d682826116bc565b91505060408301516117eb6040860182611959565b5060608301516117fe6060860182611959565b5060808301516118116080860182611959565b5060a083015161182460a0860182611959565b5060c083015161183760c0860182611959565b5060e083015161184a60e0860182611959565b5061010083015161185f610100860182611959565b50610120830151611874610120860182611959565b508091505092915050565b6000610140830160008301516118986000860182611959565b50602083015184820360208601526118b082826116bc565b91505060408301516118c56040860182611959565b5060608301516118d86060860182611959565b5060808301516118eb6080860182611959565b5060a08301516118fe60a0860182611959565b5060c083015161191160c0860182611959565b5060e083015161192460e0860182611959565b50610100830151611939610100860182611959565b5061012083015161194e610120860182611959565b508091505092915050565b61196281611cf9565b82525050565b61197181611cf9565b82525050565b61198081611d27565b82525050565b6000611992828461172e565b915081905092915050565b60006119a882611782565b9150819050919050565b60006020820190506119c76000830184611638565b92915050565b600060208201905081810360008301526119e78184611647565b905092915050565b60006020820190508181036000830152611a0981846116f5565b905092915050565b60006020820190508181036000830152611a2a8161175f565b9050919050565b60006020820190508181036000830152611a4b818461187f565b905092915050565b600061014082019050611a69600083018d611968565b8181036020830152611a7b818c6116f5565b9050611a8a604083018b611968565b611a97606083018a611968565b611aa46080830189611968565b611ab160a0830188611968565b611abe60c0830187611968565b611acb60e0830186611968565b611ad9610100830185611968565b611ae7610120830184611968565b9b9a5050505050505050505050565b6000606082019050611b0b6000830186611968565b611b186020830185611968565b611b256040830184611968565b949350505050565b6000602082019050611b426000830184611977565b92915050565b6000611b52611b63565b9050611b5e8282611da5565b919050565b6000604051905090565b600067ffffffffffffffff821115611b8857611b87611edd565b5b611b9182611f0c565b9050602081019050919050565b6000819050602082019050919050565b600081519050919050565b600081519050919050565b6000602082019050919050565b600082825260208201905092915050565b600081905092915050565b600082825260208201905092915050565b600082825260208201905092915050565b600081905092915050565b6000611c2582611d27565b9150611c3083611d27565b9250827fffffffffffffffffffffffffffffffffffffffffffffffffffffffffffffffff03821115611c6557611c64611e50565b5b828201905092915050565b6000611c7b82611d27565b9150611c8683611d27565b925082611c9657611c95611e7f565b5b828204905092915050565b6000611cac82611d27565b9150611cb783611d27565b925082821015611cca57611cc9611e50565b5b828203905092915050565b6000611ce082611d07565b9050919050565b6000611cf282611d07565b9050919050565b600061ffff82169050919050565b600073ffffffffffffffffffffffffffffffffffffffff82169050919050565b6000819050919050565b82818337600083830152505050565b60005b83811015611d5e578082015181840152602081019050611d43565b83811115611d6d576000848401525b50505050565b60006002820490506001821680611d8b57607f821691505b60208210811415611d9f57611d9e611eae565b5b50919050565b611dae82611f0c565b810181811067ffffffffffffffff82111715611dcd57611dcc611edd565b5b80604052505050565b6000611de182611d27565b91507fffffffffffffffffffffffffffffffffffffffffffffffffffffffffffffffff821415611e1457611e13611e50565b5b600182019050919050565b6000611e2a82611d27565b9150611e3583611d27565b925082611e4557611e44611e7f565b5b828206905092915050565b7f4e487b7100000000000000000000000000000000000000000000000000000000600052601160045260246000fd5b7f4e487b7100000000000000000000000000000000000000000000000000000000600052601260045260246000fd5b7f4e487b7100000000000000000000000000000000000000000000000000000000600052602260045260246000fd5b7f4e487b7100000000000000000000000000000000000000000000000000000000600052604160045260246000fd5b6000601f19601f8301169050919050565b7f4661696c656420746f2073656e64204574686572000000000000000000000000600082015250565b50565b611f5281611cd5565b8114611f5d57600080fd5b50565b611f6981611ce7565b8114611f7457600080fd5b50565b611f8081611cf9565b8114611f8b57600080fd5b50565b611f9781611d27565b8114611fa257600080fd5b5056fea2646970667358221220109034655646a994ae947a5666512e983afab8e22cc048e916b79d448dbb503f64736f6c63430008040033",
  "linkReferences": {},
  "deployedLinkReferences": {}
}